{
  "_format": "hh-sol-artifact-1",
  "contractName": "SimpleStorage",
  "sourceName": "contracts/SimpleStorage.sol",
  "abi": [
    {
      "inputs": [],
      "name": "getUserData",
      "outputs": [
        {
          "internalType": "string",
          "name": "",
          "type": "string"
        },
        {
          "internalType": "string",
          "name": "",
          "type": "string"
        }
      ],
      "stateMutability": "view",
      "type": "function"
    },
    {
      "inputs": [
        {
          "internalType": "string",
          "name": "data",
          "type": "string"
        },
        {
          "internalType": "string",
          "name": "role",
          "type": "string"
        }
      ],
      "name": "setUserData",
      "outputs": [],
      "stateMutability": "nonpayable",
      "type": "function"
    }
  ],
  "bytecode": "0x608060405234801561001057600080fd5b506105da806100206000396000f3fe608060405234801561001057600080fd5b50600436106100365760003560e01c806322e8c87d1461003b578063d56c351c1461005a575b600080fd5b610043610076565b60405161005192919061040d565b60405180910390f35b610074600480360381019061006f9190610368565b6101e4565b005b60608060008060003373ffffffffffffffffffffffffffffffffffffffff1673ffffffffffffffffffffffffffffffffffffffff168152602001908152602001600020905080600001816001018180546100cf90610503565b80601f01602080910402602001604051908101604052809291908181526020018280546100fb90610503565b80156101485780601f1061011d57610100808354040283529160200191610148565b820191906000526020600020905b81548152906001019060200180831161012b57829003601f168201915b5050505050915080805461015b90610503565b80601f016020809104026020016040519081016040528092919081815260200182805461018790610503565b80156101d45780601f106101a9576101008083540402835291602001916101d4565b820191906000526020600020905b8154815290600101906020018083116101b757829003601f168201915b5050505050905092509250509091565b60008060003373ffffffffffffffffffffffffffffffffffffffff1673ffffffffffffffffffffffffffffffffffffffff16815260200190815260200160002090508281600001908051906020019061023e92919061025d565b508181600101908051906020019061025792919061025d565b50505050565b82805461026990610503565b90600052602060002090601f01602090048101928261028b57600085556102d2565b82601f106102a457805160ff19168380011785556102d2565b828001600101855582156102d2579182015b828111156102d15782518255916020019190600101906102b6565b5b5090506102df91906102e3565b5090565b5b808211156102fc5760008160009055506001016102e4565b5090565b600061031361030e84610475565b610444565b90508281526020810184848401111561032b57600080fd5b6103368482856104c1565b509392505050565b600082601f83011261034f57600080fd5b813561035f848260208601610300565b91505092915050565b6000806040838503121561037b57600080fd5b600083013567ffffffffffffffff81111561039557600080fd5b6103a18582860161033e565b925050602083013567ffffffffffffffff8111156103be57600080fd5b6103ca8582860161033e565b9150509250929050565b60006103df826104a5565b6103e981856104b0565b93506103f98185602086016104d0565b61040281610593565b840191505092915050565b6000604082019050818103600083015261042781856103d4565b9050818103602083015261043b81846103d4565b90509392505050565b6000604051905081810181811067ffffffffffffffff8211171561046b5761046a610564565b5b8060405250919050565b600067ffffffffffffffff8211156104905761048f610564565b5b601f19601f8301169050602081019050919050565b600081519050919050565b600082825260208201905092915050565b82818337600083830152505050565b60005b838110156104ee5780820151818401526020810190506104d3565b838111156104fd576000848401525b50505050565b6000600282049050600182168061051b57607f821691505b6020821081141561052f5761052e610535565b5b50919050565b7f4e487b7100000000000000000000000000000000000000000000000000000000600052602260045260246000fd5b7f4e487b7100000000000000000000000000000000000000000000000000000000600052604160045260246000fd5b6000601f19601f830116905091905056fea2646970667358221220ce703d2aa113e8313fd491e2b7423d666971f22227b8b647048c950410da848f64736f6c63430008000033",
  "linkReferences": {},
  "deployedLinkReferences": {}
}